{
  "_format": "hh-sol-artifact-1",
  "contractName": "DepositToken",
  "sourceName": "contracts/DepositToken.sol",
  "abi": [
    {
      "inputs": [],
      "stateMutability": "nonpayable",
      "type": "constructor"
    },
    {
      "inputs": [],
      "name": "contractOwner",
      "outputs": [
        {
          "internalType": "address",
          "name": "",
          "type": "address"
        }
      ],
      "stateMutability": "view",
      "type": "function"
    },
    {
      "inputs": [],
      "name": "getBalance",
      "outputs": [
        {
          "internalType": "uint256",
          "name": "",
          "type": "uint256"
        }
      ],
      "stateMutability": "view",
      "type": "function"
    },
    {
      "inputs": [],
      "name": "transfer",
      "outputs": [],
      "stateMutability": "payable",
      "type": "function"
    },
    {
      "inputs": [
        {
          "internalType": "address payable",
          "name": "_to",
          "type": "address"
        }
      ],
      "name": "withdrawal",
      "outputs": [],
      "stateMutability": "nonpayable",
      "type": "function"
    }
  ],
  "bytecode": "0x608060405234801561001057600080fd5b50336000806101000a81548173ffffffffffffffffffffffffffffffffffffffff021916908373ffffffffffffffffffffffffffffffffffffffff1602179055506102d3806100606000396000f3fe60806040526004361061003f5760003560e01c806312065fe0146100445780638a4068dd1461006f5780639613104914610079578063ce606ee0146100a2575b600080fd5b34801561005057600080fd5b506100596100cd565b60405161006691906101b6565b60405180910390f35b6100776100d5565b005b34801561008557600080fd5b506100a0600480360381019061009b9190610234565b6100d7565b005b3480156100ae57600080fd5b506100b7610179565b6040516100c49190610282565b60405180910390f35b600047905090565b565b8073ffffffffffffffffffffffffffffffffffffffff1660008054906101000a900473ffffffffffffffffffffffffffffffffffffffff1673ffffffffffffffffffffffffffffffffffffffff161461012f57600080fd5b8073ffffffffffffffffffffffffffffffffffffffff166108fc479081150290604051600060405180830381858888f19350505050158015610175573d6000803e3d6000fd5b5050565b60008054906101000a900473ffffffffffffffffffffffffffffffffffffffff1681565b6000819050919050565b6101b08161019d565b82525050565b60006020820190506101cb60008301846101a7565b92915050565b600080fd5b600073ffffffffffffffffffffffffffffffffffffffff82169050919050565b6000610201826101d6565b9050919050565b610211816101f6565b811461021c57600080fd5b50565b60008135905061022e81610208565b92915050565b60006020828403121561024a576102496101d1565b5b60006102588482850161021f565b91505092915050565b600061026c826101d6565b9050919050565b61027c81610261565b82525050565b60006020820190506102976000830184610273565b9291505056fea26469706673582212207d656b01ee32ea2b6bd451b16a9b803ae84a3488af6eadd5c0ae25fa5942ca2864736f6c63430008110033",
  "linkReferences": {},
  "deployedLinkReferences": {}
}